{
  "_format": "hh-sol-artifact-1",
  "contractName": "Inflection",
  "sourceName": "contracts/Inflection.sol",
  "abi": [
    {
      "inputs": [
        {
          "internalType": "contract Point",
          "name": "_point",
          "type": "address"
        }
      ],
      "stateMutability": "nonpayable",
      "type": "constructor"
    },
    {
      "anonymous": false,
      "inputs": [
        {
          "indexed": true,
          "internalType": "uint256",
          "name": "id",
          "type": "uint256"
        },
        {
          "indexed": false,
          "internalType": "uint256",
          "name": "value",
          "type": "uint256"
        },
        {
          "indexed": false,
          "internalType": "uint256",
          "name": "time",
          "type": "uint256"
        }
      ],
      "name": "Engagement",
      "type": "event"
    },
    {
      "anonymous": false,
      "inputs": [
        {
          "indexed": true,
          "internalType": "address",
          "name": "previousOwner",
          "type": "address"
        },
        {
          "indexed": true,
          "internalType": "address",
          "name": "newOwner",
          "type": "address"
        }
      ],
      "name": "OwnershipTransferred",
      "type": "event"
    },
    {
      "anonymous": false,
      "inputs": [
        {
          "indexed": true,
          "internalType": "address",
          "name": "user",
          "type": "address"
        },
        {
          "indexed": false,
          "internalType": "uint256",
          "name": "amount",
          "type": "uint256"
        }
      ],
      "name": "PowerUp",
      "type": "event"
    },
    {
      "inputs": [
        {
          "internalType": "uint256",
          "name": "userID",
          "type": "uint256"
        },
        {
          "internalType": "uint256",
          "name": "_amount",
          "type": "uint256"
        }
      ],
      "name": "addPOINT",
      "outputs": [],
      "stateMutability": "nonpayable",
      "type": "function"
    },
    {
      "inputs": [
        {
          "internalType": "uint256",
          "name": "userID",
          "type": "uint256"
        },
        {
          "internalType": "uint256",
          "name": "serverID",
          "type": "uint256"
        }
      ],
      "name": "assignServerOwner",
      "outputs": [],
      "stateMutability": "nonpayable",
      "type": "function"
    },
    {
      "inputs": [
        {
          "internalType": "uint256",
          "name": "discordID",
          "type": "uint256"
        },
        {
          "internalType": "address",
          "name": "_address",
          "type": "address"
        }
      ],
      "name": "authenticate",
      "outputs": [],
      "stateMutability": "nonpayable",
      "type": "function"
    },
    {
      "inputs": [
        {
          "internalType": "uint256",
          "name": "",
          "type": "uint256"
        }
      ],
      "name": "balance",
      "outputs": [
        {
          "internalType": "uint256",
          "name": "",
          "type": "uint256"
        }
      ],
      "stateMutability": "view",
      "type": "function"
    },
    {
      "inputs": [
        {
          "internalType": "uint256",
          "name": "userID",
          "type": "uint256"
        }
      ],
      "name": "checkBalance",
      "outputs": [
        {
          "internalType": "uint256",
          "name": "",
          "type": "uint256"
        }
      ],
      "stateMutability": "view",
      "type": "function"
    },
    {
      "inputs": [
        {
          "internalType": "uint256",
          "name": "serverID",
          "type": "uint256"
        }
      ],
      "name": "checkServerOwner",
      "outputs": [
        {
          "internalType": "uint256",
          "name": "",
          "type": "uint256"
        }
      ],
      "stateMutability": "view",
      "type": "function"
    },
    {
      "inputs": [
        {
          "internalType": "uint256",
          "name": "engagerID",
          "type": "uint256"
        },
        {
          "internalType": "uint256",
          "name": "posterID",
          "type": "uint256"
        },
        {
          "internalType": "uint256",
          "name": "serverID",
          "type": "uint256"
        }
      ],
      "name": "engage",
      "outputs": [],
      "stateMutability": "nonpayable",
      "type": "function"
    },
    {
      "inputs": [],
      "name": "getContractBalance",
      "outputs": [
        {
          "internalType": "uint256",
          "name": "",
          "type": "uint256"
        }
      ],
      "stateMutability": "view",
      "type": "function"
    },
    {
      "inputs": [
        {
          "internalType": "uint256",
          "name": "discordID",
          "type": "uint256"
        }
      ],
      "name": "hasBalance",
      "outputs": [
        {
          "internalType": "bool",
          "name": "",
          "type": "bool"
        }
      ],
      "stateMutability": "view",
      "type": "function"
    },
    {
      "inputs": [
        {
          "internalType": "uint256",
          "name": "",
          "type": "uint256"
        }
      ],
      "name": "inflectionAccount",
      "outputs": [
        {
          "internalType": "address",
          "name": "",
          "type": "address"
        }
      ],
      "stateMutability": "view",
      "type": "function"
    },
    {
      "inputs": [
        {
          "internalType": "uint256",
          "name": "discordID",
          "type": "uint256"
        }
      ],
      "name": "isAuthenticated",
      "outputs": [
        {
          "internalType": "bool",
          "name": "",
          "type": "bool"
        }
      ],
      "stateMutability": "view",
      "type": "function"
    },
    {
      "inputs": [
        {
          "internalType": "address",
          "name": "",
          "type": "address"
        }
      ],
      "name": "isPoweredUp",
      "outputs": [
        {
          "internalType": "bool",
          "name": "",
          "type": "bool"
        }
      ],
      "stateMutability": "view",
      "type": "function"
    },
    {
      "inputs": [],
      "name": "owner",
      "outputs": [
        {
          "internalType": "address",
          "name": "",
          "type": "address"
        }
      ],
      "stateMutability": "view",
      "type": "function"
    },
    {
      "inputs": [
        {
          "internalType": "uint256",
          "name": "",
          "type": "uint256"
        }
      ],
      "name": "previousEngagement",
      "outputs": [
        {
          "internalType": "uint256",
          "name": "",
          "type": "uint256"
        }
      ],
      "stateMutability": "view",
      "type": "function"
    },
    {
      "inputs": [
        {
          "internalType": "uint256",
          "name": "",
          "type": "uint256"
        }
      ],
      "name": "previousMana",
      "outputs": [
        {
          "internalType": "uint256",
          "name": "",
          "type": "uint256"
        }
      ],
      "stateMutability": "view",
      "type": "function"
    },
    {
      "inputs": [],
      "name": "renounceOwnership",
      "outputs": [],
      "stateMutability": "nonpayable",
      "type": "function"
    },
    {
      "inputs": [
        {
          "internalType": "uint256",
          "name": "senderID",
          "type": "uint256"
        },
        {
          "internalType": "uint256",
          "name": "receiverID",
          "type": "uint256"
        },
        {
          "internalType": "uint256",
          "name": "amount",
          "type": "uint256"
        }
      ],
      "name": "sendPOINT",
      "outputs": [],
      "stateMutability": "nonpayable",
      "type": "function"
    },
    {
      "inputs": [
        {
          "internalType": "uint256",
          "name": "",
          "type": "uint256"
        }
      ],
      "name": "serverOwner",
      "outputs": [
        {
          "internalType": "uint256",
          "name": "",
          "type": "uint256"
        }
      ],
      "stateMutability": "view",
      "type": "function"
    },
    {
      "inputs": [
        {
          "internalType": "address",
          "name": "newOwner",
          "type": "address"
        }
      ],
      "name": "transferOwnership",
      "outputs": [],
      "stateMutability": "nonpayable",
      "type": "function"
    },
    {
      "inputs": [
        {
          "internalType": "uint256",
          "name": "discordID",
          "type": "uint256"
        },
        {
          "internalType": "uint256",
          "name": "_amount",
          "type": "uint256"
        }
      ],
      "name": "withdraw",
      "outputs": [],
      "stateMutability": "nonpayable",
      "type": "function"
    }
  ],
  "bytecode": "0x60806040523480156200001157600080fd5b5060405162001a6c38038062001a6c833981810160405281019062000037919062000182565b620000576200004b6200009f60201b60201c565b620000a760201b60201c565b80600160006101000a81548173ffffffffffffffffffffffffffffffffffffffff021916908373ffffffffffffffffffffffffffffffffffffffff1602179055505062000210565b600033905090565b60008060009054906101000a900473ffffffffffffffffffffffffffffffffffffffff169050816000806101000a81548173ffffffffffffffffffffffffffffffffffffffff021916908373ffffffffffffffffffffffffffffffffffffffff1602179055508173ffffffffffffffffffffffffffffffffffffffff168173ffffffffffffffffffffffffffffffffffffffff167f8be0079c531659141344cd1fd0a4f28419497f9722a3daafe3b4186f6b6457e060405160405180910390a35050565b6000815190506200017c81620001f6565b92915050565b6000602082840312156200019557600080fd5b6000620001a5848285016200016b565b91505092915050565b6000620001bb82620001d6565b9050919050565b6000620001cf82620001ae565b9050919050565b600073ffffffffffffffffffffffffffffffffffffffff82169050919050565b6200020181620001c2565b81146200020d57600080fd5b50565b61184c80620002206000396000f3fe608060405234801561001057600080fd5b506004361061012b5760003560e01c80637f286286116100ad578063b817f2f811610071578063b817f2f814610366578063dec3d07114610396578063e7654694146103b2578063f2439f0c146103ce578063f2fde38b146103fe5761012b565b80637f2862861461029c5780637f8b71e8146102cc5780638da5cb5b146102fc5780638ea7f38c1461031a578063b2d98664146103365761012b565b8063586ffae8116100f4578063586ffae81461020c5780635beb2ff4146102285780636a68024c146102585780636f9fb98a14610274578063715018a6146102925761012b565b806226eb2d1461013057806317e3f361146101605780632c72814714610190578063441a3e70146101c057806347bb89f0146101dc575b600080fd5b61014a60048036038101906101459190611263565b61041a565b604051610157919061147f565b60405180910390f35b61017a600480360381019061017591906112b5565b61043a565b604051610187919061143b565b60405180910390f35b6101aa60048036038101906101a591906112b5565b61046d565b6040516101b791906114fa565b60405180910390f35b6101da60048036038101906101d5919061131a565b610485565b005b6101f660048036038101906101f191906112b5565b610779565b60405161020391906114fa565b60405180910390f35b610226600480360381019061022191906112de565b610791565b005b610242600480360381019061023d91906112b5565b6107e7565b60405161024f91906114fa565b60405180910390f35b610272600480360381019061026d919061131a565b6107ff565b005b61027c610897565b60405161028991906114fa565b60405180910390f35b61029a6108b6565b005b6102b660048036038101906102b191906112b5565b61093e565b6040516102c391906114fa565b60405180910390f35b6102e660048036038101906102e191906112b5565b61095b565b6040516102f3919061147f565b60405180910390f35b61030461097a565b604051610311919061143b565b60405180910390f35b610334600480360381019061032f919061131a565b6109a3565b005b610350600480360381019061034b91906112b5565b610af5565b60405161035d91906114fa565b60405180910390f35b610380600480360381019061037b91906112b5565b610b0d565b60405161038d91906114fa565b60405180910390f35b6103b060048036038101906103ab9190611356565b610b2a565b005b6103cc60048036038101906103c79190611356565b610c9a565b005b6103e860048036038101906103e391906112b5565b610ff4565b6040516103f5919061147f565b60405180910390f35b61041860048036038101906104139190611263565b611060565b005b60036020528060005260406000206000915054906101000a900460ff1681565b60046020528060005260406000206000915054906101000a900473ffffffffffffffffffffffffffffffffffffffff1681565b60076020528060005260406000206000915090505481565b61048d611158565b73ffffffffffffffffffffffffffffffffffffffff166104ab61097a565b73ffffffffffffffffffffffffffffffffffffffff1614610501576040517f08c379a00000000000000000000000000000000000000000000000000000000081526004016104f8906114ba565b60405180910390fd5b60006004600084815260200190815260200160002060009054906101000a900473ffffffffffffffffffffffffffffffffffffffff1690506000600560008581526020019081526020016000205490506000670de0b6b3a76400008461056791906115d6565b9050600073ffffffffffffffffffffffffffffffffffffffff168373ffffffffffffffffffffffffffffffffffffffff1614156105a657505050610775565b60008214156105b757505050610775565b8082101561068d57600160009054906101000a900473ffffffffffffffffffffffffffffffffffffffff1673ffffffffffffffffffffffffffffffffffffffff1663a9059cbb84846040518363ffffffff1660e01b815260040161061c929190611456565b602060405180830381600087803b15801561063657600080fd5b505af115801561064a573d6000803e3d6000fd5b505050506040513d601f19601f8201168201806040525081019061066e919061128c565b5060006005600087815260200190815260200160002081905550610771565b8082111561077057600160009054906101000a900473ffffffffffffffffffffffffffffffffffffffff1673ffffffffffffffffffffffffffffffffffffffff1663a9059cbb84836040518363ffffffff1660e01b81526004016106f2929190611456565b602060405180830381600087803b15801561070c57600080fd5b505af1158015610720573d6000803e3d6000fd5b505050506040513d601f19601f82011682018060405250810190610744919061128c565b50806005600087815260200190815260200160002060008282546107689190611630565b925050819055505b5b5050505b5050565b60056020528060005260406000206000915090505481565b806004600084815260200190815260200160002060006101000a81548173ffffffffffffffffffffffffffffffffffffffff021916908373ffffffffffffffffffffffffffffffffffffffff1602179055505050565b60026020528060005260406000206000915090505481565b610807611158565b73ffffffffffffffffffffffffffffffffffffffff1661082561097a565b73ffffffffffffffffffffffffffffffffffffffff161461087b576040517f08c379a0000000000000000000000000000000000000000000000000000000008152600401610872906114ba565b60405180910390fd5b8160026000838152602001908152602001600020819055505050565b60003373ffffffffffffffffffffffffffffffffffffffff1631905090565b6108be611158565b73ffffffffffffffffffffffffffffffffffffffff166108dc61097a565b73ffffffffffffffffffffffffffffffffffffffff1614610932576040517f08c379a0000000000000000000000000000000000000000000000000000000008152600401610929906114ba565b60405180910390fd5b61093c6000611160565b565b600060056000838152602001908152602001600020549050919050565b6000806005600084815260200190815260200160002054119050919050565b60008060009054906101000a900473ffffffffffffffffffffffffffffffffffffffff16905090565b6109ab611158565b73ffffffffffffffffffffffffffffffffffffffff166109c961097a565b73ffffffffffffffffffffffffffffffffffffffff1614610a1f576040517f08c379a0000000000000000000000000000000000000000000000000000000008152600401610a16906114ba565b60405180910390fd5b6000670de0b6b3a764000082610a3591906115d6565b9050600160009054906101000a900473ffffffffffffffffffffffffffffffffffffffff1673ffffffffffffffffffffffffffffffffffffffff166340c10f1930836040518363ffffffff1660e01b8152600401610a94929190611456565b600060405180830381600087803b158015610aae57600080fd5b505af1158015610ac2573d6000803e3d6000fd5b5050505080600560008581526020019081526020016000206000828254610ae9919061154f565b92505081905550505050565b60066020528060005260406000206000915090505481565b600060026000838152602001908152602001600020549050919050565b610b32611158565b73ffffffffffffffffffffffffffffffffffffffff16610b5061097a565b73ffffffffffffffffffffffffffffffffffffffff1614610ba6576040517f08c379a0000000000000000000000000000000000000000000000000000000008152600401610b9d906114ba565b60405180910390fd5b8060056000858152602001908152602001600020541015610c40576005600084815260200190815260200160002054600560008481526020019081526020016000206000828254610bf7919061154f565b925050819055506005600084815260200190815260200160002054600560008581526020019081526020016000206000828254610c349190611630565b92505081905550610c95565b80600560008581526020019081526020016000206000828254610c639190611630565b9250508190555080600560008481526020019081526020016000206000828254610c8d919061154f565b925050819055505b505050565b610ca2611158565b73ffffffffffffffffffffffffffffffffffffffff16610cc061097a565b73ffffffffffffffffffffffffffffffffffffffff1614610d16576040517f08c379a0000000000000000000000000000000000000000000000000000000008152600401610d0d906114ba565b60405180910390fd5b60006005600085815260200190815260200160002054905060018111610d71576040517f08c379a0000000000000000000000000000000000000000000000000000000008152600401610d68906114da565b60405180910390fd5b60006024600760008781526020019081526020016000205442610d949190611630565b610d9e91906115a5565b90506000816006600088815260200190815260200160002054610dc1919061154f565b90506064811115610dd157606490505b60006103e890506000818386610de791906115d6565b610df191906115a5565b9050600160009054906101000a900473ffffffffffffffffffffffffffffffffffffffff1673ffffffffffffffffffffffffffffffffffffffff166340c10f1930836040518363ffffffff1660e01b8152600401610e50929190611456565b600060405180830381600087803b158015610e6a57600080fd5b505af1158015610e7e573d6000803e3d6000fd5b505050506064604682610e9191906115d6565b610e9b91906115a5565b600560008981526020019081526020016000206000828254610ebd919061154f565b925050819055506064601482610ed391906115d6565b610edd91906115a5565b600560008a81526020019081526020016000206000828254610eff919061154f565b925050819055506064600782610f1591906115d6565b610f1f91906115a5565b600560008881526020019081526020016000206000828254610f41919061154f565b92505081905550600a831115610f7057600a83610f5e91906115a5565b83610f699190611630565b9250610f80565b600183610f7d9190611630565b92505b82600660008a81526020019081526020016000208190555042600760008a815260200190815260200160002081905550877fbe911e1f9f66d03213bf7151c18b8b493762baf82771ea14a5e15a57ee84f6cc8242604051610fe2929190611515565b60405180910390a25050505050505050565b60008073ffffffffffffffffffffffffffffffffffffffff166004600084815260200190815260200160002060009054906101000a900473ffffffffffffffffffffffffffffffffffffffff1673ffffffffffffffffffffffffffffffffffffffff1614159050919050565b611068611158565b73ffffffffffffffffffffffffffffffffffffffff1661108661097a565b73ffffffffffffffffffffffffffffffffffffffff16146110dc576040517f08c379a00000000000000000000000000000000000000000000000000000000081526004016110d3906114ba565b60405180910390fd5b600073ffffffffffffffffffffffffffffffffffffffff168173ffffffffffffffffffffffffffffffffffffffff16141561114c576040517f08c379a00000000000000000000000000000000000000000000000000000000081526004016111439061149a565b60405180910390fd5b61115581611160565b50565b600033905090565b60008060009054906101000a900473ffffffffffffffffffffffffffffffffffffffff169050816000806101000a81548173ffffffffffffffffffffffffffffffffffffffff021916908373ffffffffffffffffffffffffffffffffffffffff1602179055508173ffffffffffffffffffffffffffffffffffffffff168173ffffffffffffffffffffffffffffffffffffffff167f8be0079c531659141344cd1fd0a4f28419497f9722a3daafe3b4186f6b6457e060405160405180910390a35050565b600081359050611233816117d1565b92915050565b600081519050611248816117e8565b92915050565b60008135905061125d816117ff565b92915050565b60006020828403121561127557600080fd5b600061128384828501611224565b91505092915050565b60006020828403121561129e57600080fd5b60006112ac84828501611239565b91505092915050565b6000602082840312156112c757600080fd5b60006112d58482850161124e565b91505092915050565b600080604083850312156112f157600080fd5b60006112ff8582860161124e565b925050602061131085828601611224565b9150509250929050565b6000806040838503121561132d57600080fd5b600061133b8582860161124e565b925050602061134c8582860161124e565b9150509250929050565b60008060006060848603121561136b57600080fd5b60006113798682870161124e565b935050602061138a8682870161124e565b925050604061139b8682870161124e565b9150509250925092565b6113ae81611664565b82525050565b6113bd81611676565b82525050565b60006113d060268361153e565b91506113db8261170a565b604082019050919050565b60006113f360208361153e565b91506113fe82611759565b602082019050919050565b600061141660228361153e565b915061142182611782565b604082019050919050565b611435816116a2565b82525050565b600060208201905061145060008301846113a5565b92915050565b600060408201905061146b60008301856113a5565b611478602083018461142c565b9392505050565b600060208201905061149460008301846113b4565b92915050565b600060208201905081810360008301526114b3816113c3565b9050919050565b600060208201905081810360008301526114d3816113e6565b9050919050565b600060208201905081810360008301526114f381611409565b9050919050565b600060208201905061150f600083018461142c565b92915050565b600060408201905061152a600083018561142c565b611537602083018461142c565b9392505050565b600082825260208201905092915050565b600061155a826116a2565b9150611565836116a2565b9250827fffffffffffffffffffffffffffffffffffffffffffffffffffffffffffffffff0382111561159a576115996116ac565b5b828201905092915050565b60006115b0826116a2565b91506115bb836116a2565b9250826115cb576115ca6116db565b5b828204905092915050565b60006115e1826116a2565b91506115ec836116a2565b9250817fffffffffffffffffffffffffffffffffffffffffffffffffffffffffffffffff0483118215151615611625576116246116ac565b5b828202905092915050565b600061163b826116a2565b9150611646836116a2565b925082821015611659576116586116ac565b5b828203905092915050565b600061166f82611682565b9050919050565b60008115159050919050565b600073ffffffffffffffffffffffffffffffffffffffff82169050919050565b6000819050919050565b7f4e487b7100000000000000000000000000000000000000000000000000000000600052601160045260246000fd5b7f4e487b7100000000000000000000000000000000000000000000000000000000600052601260045260246000fd5b7f4f776e61626c653a206e6577206f776e657220697320746865207a65726f206160008201527f6464726573730000000000000000000000000000000000000000000000000000602082015250565b7f4f776e61626c653a2063616c6c6572206973206e6f7420746865206f776e6572600082015250565b7f5573657220686173206e6f2062616c616e636520746f20656e6761676520776960008201527f7468000000000000000000000000000000000000000000000000000000000000602082015250565b6117da81611664565b81146117e557600080fd5b50565b6117f181611676565b81146117fc57600080fd5b50565b611808816116a2565b811461181357600080fd5b5056fea26469706673582212209de4eb0cc2cbb44f0514c2e19a07fcacee5487de1525b90acc2e6994ea448e9a64736f6c63430008040033",
  "linkReferences": {},
  "deployedLinkReferences": {}
}