{
  "_format": "hh-sol-artifact-1",
  "contractName": "Inflection",
  "sourceName": "contracts/Inflection.sol",
  "abi": [
    {
      "inputs": [
        {
          "internalType": "contract Point",
          "name": "_point",
          "type": "address"
        }
      ],
      "stateMutability": "nonpayable",
      "type": "constructor"
    },
    {
      "anonymous": false,
      "inputs": [
        {
          "indexed": true,
          "internalType": "uint256",
          "name": "id",
          "type": "uint256"
        },
        {
          "indexed": false,
          "internalType": "uint256",
          "name": "value",
          "type": "uint256"
        },
        {
          "indexed": false,
          "internalType": "uint256",
          "name": "time",
          "type": "uint256"
        }
      ],
      "name": "Engagement",
      "type": "event"
    },
    {
      "anonymous": false,
      "inputs": [
        {
          "indexed": true,
          "internalType": "address",
          "name": "user",
          "type": "address"
        },
        {
          "indexed": false,
          "internalType": "uint256",
          "name": "amount",
          "type": "uint256"
        }
      ],
      "name": "PowerUp",
      "type": "event"
    },
    {
      "inputs": [
        {
          "internalType": "uint256",
          "name": "userID",
          "type": "uint256"
        },
        {
          "internalType": "uint256",
          "name": "_amount",
          "type": "uint256"
        }
      ],
      "name": "addPOINT",
      "outputs": [],
      "stateMutability": "nonpayable",
      "type": "function"
    },
    {
      "inputs": [
        {
          "internalType": "uint256",
          "name": "userID",
          "type": "uint256"
        },
        {
          "internalType": "uint256",
          "name": "serverID",
          "type": "uint256"
        }
      ],
      "name": "assignServerOwner",
      "outputs": [],
      "stateMutability": "nonpayable",
      "type": "function"
    },
    {
      "inputs": [
        {
          "internalType": "uint256",
          "name": "discordID",
          "type": "uint256"
        },
        {
          "internalType": "address",
          "name": "_address",
          "type": "address"
        }
      ],
      "name": "authenticate",
      "outputs": [],
      "stateMutability": "nonpayable",
      "type": "function"
    },
    {
      "inputs": [
        {
          "internalType": "uint256",
          "name": "",
          "type": "uint256"
        }
      ],
      "name": "balance",
      "outputs": [
        {
          "internalType": "uint256",
          "name": "",
          "type": "uint256"
        }
      ],
      "stateMutability": "view",
      "type": "function"
    },
    {
      "inputs": [
        {
          "internalType": "uint256",
          "name": "userID",
          "type": "uint256"
        }
      ],
      "name": "checkBalance",
      "outputs": [
        {
          "internalType": "uint256",
          "name": "",
          "type": "uint256"
        }
      ],
      "stateMutability": "view",
      "type": "function"
    },
    {
      "inputs": [
        {
          "internalType": "uint256",
          "name": "serverID",
          "type": "uint256"
        }
      ],
      "name": "checkServerOwner",
      "outputs": [
        {
          "internalType": "uint256",
          "name": "",
          "type": "uint256"
        }
      ],
      "stateMutability": "view",
      "type": "function"
    },
    {
      "inputs": [
        {
          "internalType": "uint256",
          "name": "engagerID",
          "type": "uint256"
        },
        {
          "internalType": "uint256",
          "name": "posterID",
          "type": "uint256"
        },
        {
          "internalType": "uint256",
          "name": "serverID",
          "type": "uint256"
        }
      ],
      "name": "engage",
      "outputs": [],
      "stateMutability": "nonpayable",
      "type": "function"
    },
    {
      "inputs": [],
      "name": "getContractBalance",
      "outputs": [
        {
          "internalType": "uint256",
          "name": "",
          "type": "uint256"
        }
      ],
      "stateMutability": "view",
      "type": "function"
    },
    {
      "inputs": [
        {
          "internalType": "uint256",
          "name": "",
          "type": "uint256"
        }
      ],
      "name": "inflectionAccount",
      "outputs": [
        {
          "internalType": "address",
          "name": "",
          "type": "address"
        }
      ],
      "stateMutability": "view",
      "type": "function"
    },
    {
      "inputs": [
        {
          "internalType": "uint256",
          "name": "discordID",
          "type": "uint256"
        }
      ],
      "name": "isAuthenticated",
      "outputs": [
        {
          "internalType": "bool",
          "name": "",
          "type": "bool"
        }
      ],
      "stateMutability": "view",
      "type": "function"
    },
    {
      "inputs": [
        {
          "internalType": "address",
          "name": "",
          "type": "address"
        }
      ],
      "name": "isPoweredUp",
      "outputs": [
        {
          "internalType": "bool",
          "name": "",
          "type": "bool"
        }
      ],
      "stateMutability": "view",
      "type": "function"
    },
    {
      "inputs": [
        {
          "internalType": "uint256",
          "name": "",
          "type": "uint256"
        }
      ],
      "name": "previousEngagement",
      "outputs": [
        {
          "internalType": "uint256",
          "name": "",
          "type": "uint256"
        }
      ],
      "stateMutability": "view",
      "type": "function"
    },
    {
      "inputs": [
        {
          "internalType": "uint256",
          "name": "",
          "type": "uint256"
        }
      ],
      "name": "previousMana",
      "outputs": [
        {
          "internalType": "uint256",
          "name": "",
          "type": "uint256"
        }
      ],
      "stateMutability": "view",
      "type": "function"
    },
    {
      "inputs": [
        {
          "internalType": "uint256",
          "name": "senderID",
          "type": "uint256"
        },
        {
          "internalType": "uint256",
          "name": "receiverID",
          "type": "uint256"
        },
        {
          "internalType": "uint256",
          "name": "amount",
          "type": "uint256"
        }
      ],
      "name": "sendPOINT",
      "outputs": [],
      "stateMutability": "nonpayable",
      "type": "function"
    },
    {
      "inputs": [
        {
          "internalType": "uint256",
          "name": "",
          "type": "uint256"
        }
      ],
      "name": "serverOwner",
      "outputs": [
        {
          "internalType": "uint256",
          "name": "",
          "type": "uint256"
        }
      ],
      "stateMutability": "view",
      "type": "function"
    },
    {
      "inputs": [
        {
          "internalType": "uint256",
          "name": "discordID",
          "type": "uint256"
        },
        {
          "internalType": "uint256",
          "name": "_amount",
          "type": "uint256"
        }
      ],
      "name": "withdraw",
      "outputs": [
        {
          "internalType": "bool",
          "name": "",
          "type": "bool"
        }
      ],
      "stateMutability": "nonpayable",
      "type": "function"
    }
  ],
  "bytecode": "0x60806040523480156200001157600080fd5b50604051620012fc380380620012fc833981810160405281019062000037919062000095565b806000806101000a81548173ffffffffffffffffffffffffffffffffffffffff021916908373ffffffffffffffffffffffffffffffffffffffff1602179055505062000123565b6000815190506200008f8162000109565b92915050565b600060208284031215620000a857600080fd5b6000620000b8848285016200007e565b91505092915050565b6000620000ce82620000e9565b9050919050565b6000620000e282620000c1565b9050919050565b600073ffffffffffffffffffffffffffffffffffffffff82169050919050565b6200011481620000d5565b81146200012057600080fd5b50565b6111c980620001336000396000f3fe608060405234801561001057600080fd5b50600436106100ff5760003560e01c80636f9fb98a11610097578063b817f2f811610066578063b817f2f8146102f6578063dec3d07114610326578063e765469414610342578063f2439f0c1461035e576100ff565b80636f9fb98a1461025c5780637f2862861461027a5780638ea7f38c146102aa578063b2d98664146102c6576100ff565b806347bb89f0116100d357806347bb89f0146101c4578063586ffae8146101f45780635beb2ff4146102105780636a68024c14610240576100ff565b806226eb2d1461010457806317e3f361146101345780632c72814714610164578063441a3e7014610194575b600080fd5b61011e60048036038101906101199190610cde565b61038e565b60405161012b9190610eb4565b60405180910390f35b61014e60048036038101906101499190610d30565b6103ae565b60405161015b9190610e70565b60405180910390f35b61017e60048036038101906101799190610d30565b6103e1565b60405161018b9190610eef565b60405180910390f35b6101ae60048036038101906101a99190610d95565b6103f9565b6040516101bb9190610eb4565b60405180910390f35b6101de60048036038101906101d99190610d30565b61067c565b6040516101eb9190610eef565b60405180910390f35b61020e60048036038101906102099190610d59565b610694565b005b61022a60048036038101906102259190610d30565b6106ea565b6040516102379190610eef565b60405180910390f35b61025a60048036038101906102559190610d95565b610702565b005b61026461071e565b6040516102719190610eef565b60405180910390f35b610294600480360381019061028f9190610d30565b61073d565b6040516102a19190610eef565b60405180910390f35b6102c460048036038101906102bf9190610d95565b61075a565b005b6102e060048036038101906102db9190610d30565b61082e565b6040516102ed9190610eef565b60405180910390f35b610310600480360381019061030b9190610d30565b610846565b60405161031d9190610eef565b60405180910390f35b610340600480360381019061033b9190610dd1565b610863565b005b61035c60048036038101906103579190610dd1565b610957565b005b61037860048036038101906103739190610d30565b610c33565b6040516103859190610eb4565b60405180910390f35b60026020528060005260406000206000915054906101000a900460ff1681565b60036020528060005260406000206000915054906101000a900473ffffffffffffffffffffffffffffffffffffffff1681565b60066020528060005260406000206000915090505481565b6000806003600085815260200190815260200160002060009054906101000a900473ffffffffffffffffffffffffffffffffffffffff1690506000600460008681526020019081526020016000205490506000670de0b6b3a7640000856104609190610fcb565b9050600073ffffffffffffffffffffffffffffffffffffffff168373ffffffffffffffffffffffffffffffffffffffff1614156104a35760009350505050610676565b60008214156104b85760009350505050610676565b8082101561058c5760008054906101000a900473ffffffffffffffffffffffffffffffffffffffff1673ffffffffffffffffffffffffffffffffffffffff1663a9059cbb84846040518363ffffffff1660e01b815260040161051b929190610e8b565b602060405180830381600087803b15801561053557600080fd5b505af1158015610549573d6000803e3d6000fd5b505050506040513d601f19601f8201168201806040525081019061056d9190610d07565b506000600460008881526020019081526020016000208190555061066e565b8082111561066d5760008054906101000a900473ffffffffffffffffffffffffffffffffffffffff1673ffffffffffffffffffffffffffffffffffffffff1663a9059cbb84836040518363ffffffff1660e01b81526004016105ef929190610e8b565b602060405180830381600087803b15801561060957600080fd5b505af115801561061d573d6000803e3d6000fd5b505050506040513d601f19601f820116820180604052508101906106419190610d07565b50806004600088815260200190815260200160002060008282546106659190611025565b925050819055505b5b600193505050505b92915050565b60046020528060005260406000206000915090505481565b806003600084815260200190815260200160002060006101000a81548173ffffffffffffffffffffffffffffffffffffffff021916908373ffffffffffffffffffffffffffffffffffffffff1602179055505050565b60016020528060005260406000206000915090505481565b8160016000838152602001908152602001600020819055505050565b60003373ffffffffffffffffffffffffffffffffffffffff1631905090565b600060046000838152602001908152602001600020549050919050565b6000670de0b6b3a7640000826107709190610fcb565b905060008054906101000a900473ffffffffffffffffffffffffffffffffffffffff1673ffffffffffffffffffffffffffffffffffffffff166340c10f1930836040518363ffffffff1660e01b81526004016107cd929190610e8b565b600060405180830381600087803b1580156107e757600080fd5b505af11580156107fb573d6000803e3d6000fd5b50505050806004600085815260200190815260200160002060008282546108229190610f44565b92505081905550505050565b60056020528060005260406000206000915090505481565b600060016000838152602001908152602001600020549050919050565b80600460008581526020019081526020016000205410156108fd5760046000848152602001908152602001600020546004600084815260200190815260200160002060008282546108b49190610f44565b9250508190555060046000848152602001908152602001600020546004600085815260200190815260200160002060008282546108f19190611025565b92505081905550610952565b806004600085815260200190815260200160002060008282546109209190611025565b925050819055508060046000848152602001908152602001600020600082825461094a9190610f44565b925050819055505b505050565b600060046000858152602001908152602001600020549050600181116109b2576040517f08c379a00000000000000000000000000000000000000000000000000000000081526004016109a990610ecf565b60405180910390fd5b600060246006600087815260200190815260200160002054426109d59190611025565b6109df9190610f9a565b90506000816005600088815260200190815260200160002054610a029190610f44565b90506064811115610a1257606490505b60006103e890506000818386610a289190610fcb565b610a329190610f9a565b905060008054906101000a900473ffffffffffffffffffffffffffffffffffffffff1673ffffffffffffffffffffffffffffffffffffffff166340c10f1930836040518363ffffffff1660e01b8152600401610a8f929190610e8b565b600060405180830381600087803b158015610aa957600080fd5b505af1158015610abd573d6000803e3d6000fd5b505050506064604682610ad09190610fcb565b610ada9190610f9a565b600460008981526020019081526020016000206000828254610afc9190610f44565b925050819055506064601482610b129190610fcb565b610b1c9190610f9a565b600460008a81526020019081526020016000206000828254610b3e9190610f44565b925050819055506064600782610b549190610fcb565b610b5e9190610f9a565b600460008881526020019081526020016000206000828254610b809190610f44565b92505081905550600a831115610baf57600a83610b9d9190610f9a565b83610ba89190611025565b9250610bbf565b600183610bbc9190611025565b92505b82600560008a81526020019081526020016000208190555042600660008a815260200190815260200160002081905550877fbe911e1f9f66d03213bf7151c18b8b493762baf82771ea14a5e15a57ee84f6cc8242604051610c21929190610f0a565b60405180910390a25050505050505050565b60008073ffffffffffffffffffffffffffffffffffffffff166003600084815260200190815260200160002060009054906101000a900473ffffffffffffffffffffffffffffffffffffffff1673ffffffffffffffffffffffffffffffffffffffff1614159050919050565b600081359050610cae8161114e565b92915050565b600081519050610cc381611165565b92915050565b600081359050610cd88161117c565b92915050565b600060208284031215610cf057600080fd5b6000610cfe84828501610c9f565b91505092915050565b600060208284031215610d1957600080fd5b6000610d2784828501610cb4565b91505092915050565b600060208284031215610d4257600080fd5b6000610d5084828501610cc9565b91505092915050565b60008060408385031215610d6c57600080fd5b6000610d7a85828601610cc9565b9250506020610d8b85828601610c9f565b9150509250929050565b60008060408385031215610da857600080fd5b6000610db685828601610cc9565b9250506020610dc785828601610cc9565b9150509250929050565b600080600060608486031215610de657600080fd5b6000610df486828701610cc9565b9350506020610e0586828701610cc9565b9250506040610e1686828701610cc9565b9150509250925092565b610e2981611059565b82525050565b610e388161106b565b82525050565b6000610e4b602283610f33565b9150610e56826110ff565b604082019050919050565b610e6a81611097565b82525050565b6000602082019050610e856000830184610e20565b92915050565b6000604082019050610ea06000830185610e20565b610ead6020830184610e61565b9392505050565b6000602082019050610ec96000830184610e2f565b92915050565b60006020820190508181036000830152610ee881610e3e565b9050919050565b6000602082019050610f046000830184610e61565b92915050565b6000604082019050610f1f6000830185610e61565b610f2c6020830184610e61565b9392505050565b600082825260208201905092915050565b6000610f4f82611097565b9150610f5a83611097565b9250827fffffffffffffffffffffffffffffffffffffffffffffffffffffffffffffffff03821115610f8f57610f8e6110a1565b5b828201905092915050565b6000610fa582611097565b9150610fb083611097565b925082610fc057610fbf6110d0565b5b828204905092915050565b6000610fd682611097565b9150610fe183611097565b9250817fffffffffffffffffffffffffffffffffffffffffffffffffffffffffffffffff048311821515161561101a576110196110a1565b5b828202905092915050565b600061103082611097565b915061103b83611097565b92508282101561104e5761104d6110a1565b5b828203905092915050565b600061106482611077565b9050919050565b60008115159050919050565b600073ffffffffffffffffffffffffffffffffffffffff82169050919050565b6000819050919050565b7f4e487b7100000000000000000000000000000000000000000000000000000000600052601160045260246000fd5b7f4e487b7100000000000000000000000000000000000000000000000000000000600052601260045260246000fd5b7f5573657220686173206e6f2062616c616e636520746f20656e6761676520776960008201527f7468000000000000000000000000000000000000000000000000000000000000602082015250565b61115781611059565b811461116257600080fd5b50565b61116e8161106b565b811461117957600080fd5b50565b61118581611097565b811461119057600080fd5b5056fea26469706673582212208360a480c457da90441617587bfeb1bf7977529afb37d82a2b86a9ce876557fc64736f6c63430008040033",
  "linkReferences": {},
  "deployedLinkReferences": {}
}