{
  "_format": "hh-sol-artifact-1",
  "contractName": "Inflection",
  "sourceName": "contracts/Inflection.sol",
  "abi": [
    {
      "inputs": [
        {
          "internalType": "contract Point",
          "name": "_point",
          "type": "address"
        }
      ],
      "stateMutability": "nonpayable",
      "type": "constructor"
    },
    {
      "anonymous": false,
      "inputs": [
        {
          "indexed": true,
          "internalType": "uint256",
          "name": "id",
          "type": "uint256"
        },
        {
          "indexed": false,
          "internalType": "uint256",
          "name": "value",
          "type": "uint256"
        },
        {
          "indexed": false,
          "internalType": "uint256",
          "name": "time",
          "type": "uint256"
        }
      ],
      "name": "Engagement",
      "type": "event"
    },
    {
      "anonymous": false,
      "inputs": [
        {
          "indexed": true,
          "internalType": "address",
          "name": "previousOwner",
          "type": "address"
        },
        {
          "indexed": true,
          "internalType": "address",
          "name": "newOwner",
          "type": "address"
        }
      ],
      "name": "OwnershipTransferred",
      "type": "event"
    },
    {
      "anonymous": false,
      "inputs": [
        {
          "indexed": true,
          "internalType": "address",
          "name": "user",
          "type": "address"
        },
        {
          "indexed": false,
          "internalType": "uint256",
          "name": "amount",
          "type": "uint256"
        }
      ],
      "name": "PowerUp",
      "type": "event"
    },
    {
      "inputs": [
        {
          "internalType": "uint256",
          "name": "userID",
          "type": "uint256"
        },
        {
          "internalType": "uint256",
          "name": "_amount",
          "type": "uint256"
        }
      ],
      "name": "addPOINT",
      "outputs": [],
      "stateMutability": "nonpayable",
      "type": "function"
    },
    {
      "inputs": [
        {
          "internalType": "uint256",
          "name": "userID",
          "type": "uint256"
        },
        {
          "internalType": "uint256",
          "name": "serverID",
          "type": "uint256"
        }
      ],
      "name": "assignServerOwner",
      "outputs": [],
      "stateMutability": "nonpayable",
      "type": "function"
    },
    {
      "inputs": [
        {
          "internalType": "uint256",
          "name": "discordID",
          "type": "uint256"
        },
        {
          "internalType": "address",
          "name": "_address",
          "type": "address"
        }
      ],
      "name": "authenticate",
      "outputs": [],
      "stateMutability": "nonpayable",
      "type": "function"
    },
    {
      "inputs": [
        {
          "internalType": "uint256",
          "name": "",
          "type": "uint256"
        }
      ],
      "name": "balance",
      "outputs": [
        {
          "internalType": "uint256",
          "name": "",
          "type": "uint256"
        }
      ],
      "stateMutability": "view",
      "type": "function"
    },
    {
      "inputs": [
        {
          "internalType": "uint256",
          "name": "userID",
          "type": "uint256"
        }
      ],
      "name": "checkBalance",
      "outputs": [
        {
          "internalType": "uint256",
          "name": "",
          "type": "uint256"
        }
      ],
      "stateMutability": "view",
      "type": "function"
    },
    {
      "inputs": [
        {
          "internalType": "uint256",
          "name": "serverID",
          "type": "uint256"
        }
      ],
      "name": "checkServerOwner",
      "outputs": [
        {
          "internalType": "uint256",
          "name": "",
          "type": "uint256"
        }
      ],
      "stateMutability": "view",
      "type": "function"
    },
    {
      "inputs": [
        {
          "internalType": "uint256",
          "name": "engagerID",
          "type": "uint256"
        },
        {
          "internalType": "uint256",
          "name": "posterID",
          "type": "uint256"
        },
        {
          "internalType": "uint256",
          "name": "serverID",
          "type": "uint256"
        }
      ],
      "name": "engage",
      "outputs": [],
      "stateMutability": "nonpayable",
      "type": "function"
    },
    {
      "inputs": [],
      "name": "getContractBalance",
      "outputs": [
        {
          "internalType": "uint256",
          "name": "",
          "type": "uint256"
        }
      ],
      "stateMutability": "view",
      "type": "function"
    },
    {
      "inputs": [
        {
          "internalType": "uint256",
          "name": "discordID",
          "type": "uint256"
        }
      ],
      "name": "hasBalance",
      "outputs": [
        {
          "internalType": "bool",
          "name": "",
          "type": "bool"
        }
      ],
      "stateMutability": "view",
      "type": "function"
    },
    {
      "inputs": [
        {
          "internalType": "uint256",
          "name": "",
          "type": "uint256"
        }
      ],
      "name": "inflectionAccount",
      "outputs": [
        {
          "internalType": "address",
          "name": "",
          "type": "address"
        }
      ],
      "stateMutability": "view",
      "type": "function"
    },
    {
      "inputs": [
        {
          "internalType": "uint256",
          "name": "discordID",
          "type": "uint256"
        }
      ],
      "name": "isAuthenticated",
      "outputs": [
        {
          "internalType": "bool",
          "name": "",
          "type": "bool"
        }
      ],
      "stateMutability": "view",
      "type": "function"
    },
    {
      "inputs": [
        {
          "internalType": "address",
          "name": "",
          "type": "address"
        }
      ],
      "name": "isPoweredUp",
      "outputs": [
        {
          "internalType": "bool",
          "name": "",
          "type": "bool"
        }
      ],
      "stateMutability": "view",
      "type": "function"
    },
    {
      "inputs": [],
      "name": "owner",
      "outputs": [
        {
          "internalType": "address",
          "name": "",
          "type": "address"
        }
      ],
      "stateMutability": "view",
      "type": "function"
    },
    {
      "inputs": [
        {
          "internalType": "uint256",
          "name": "",
          "type": "uint256"
        }
      ],
      "name": "previousEngagement",
      "outputs": [
        {
          "internalType": "uint256",
          "name": "",
          "type": "uint256"
        }
      ],
      "stateMutability": "view",
      "type": "function"
    },
    {
      "inputs": [
        {
          "internalType": "uint256",
          "name": "",
          "type": "uint256"
        }
      ],
      "name": "previousMana",
      "outputs": [
        {
          "internalType": "uint256",
          "name": "",
          "type": "uint256"
        }
      ],
      "stateMutability": "view",
      "type": "function"
    },
    {
      "inputs": [],
      "name": "renounceOwnership",
      "outputs": [],
      "stateMutability": "nonpayable",
      "type": "function"
    },
    {
      "inputs": [
        {
          "internalType": "uint256",
          "name": "senderID",
          "type": "uint256"
        },
        {
          "internalType": "uint256",
          "name": "receiverID",
          "type": "uint256"
        },
        {
          "internalType": "uint256",
          "name": "amount",
          "type": "uint256"
        }
      ],
      "name": "sendPOINT",
      "outputs": [],
      "stateMutability": "nonpayable",
      "type": "function"
    },
    {
      "inputs": [
        {
          "internalType": "uint256",
          "name": "",
          "type": "uint256"
        }
      ],
      "name": "serverOwner",
      "outputs": [
        {
          "internalType": "uint256",
          "name": "",
          "type": "uint256"
        }
      ],
      "stateMutability": "view",
      "type": "function"
    },
    {
      "inputs": [
        {
          "internalType": "address",
          "name": "newOwner",
          "type": "address"
        }
      ],
      "name": "transferOwnership",
      "outputs": [],
      "stateMutability": "nonpayable",
      "type": "function"
    },
    {
      "inputs": [
        {
          "internalType": "uint256",
          "name": "discordID",
          "type": "uint256"
        },
        {
          "internalType": "uint256",
          "name": "_amount",
          "type": "uint256"
        }
      ],
      "name": "withdraw",
      "outputs": [],
      "stateMutability": "nonpayable",
      "type": "function"
    }
  ],
  "bytecode": "0x60806040523480156200001157600080fd5b5060405162001ae838038062001ae8833981810160405281019062000037919062000182565b620000576200004b6200009f60201b60201c565b620000a760201b60201c565b80600160006101000a81548173ffffffffffffffffffffffffffffffffffffffff021916908373ffffffffffffffffffffffffffffffffffffffff1602179055505062000210565b600033905090565b60008060009054906101000a900473ffffffffffffffffffffffffffffffffffffffff169050816000806101000a81548173ffffffffffffffffffffffffffffffffffffffff021916908373ffffffffffffffffffffffffffffffffffffffff1602179055508173ffffffffffffffffffffffffffffffffffffffff168173ffffffffffffffffffffffffffffffffffffffff167f8be0079c531659141344cd1fd0a4f28419497f9722a3daafe3b4186f6b6457e060405160405180910390a35050565b6000815190506200017c81620001f6565b92915050565b6000602082840312156200019557600080fd5b6000620001a5848285016200016b565b91505092915050565b6000620001bb82620001d6565b9050919050565b6000620001cf82620001ae565b9050919050565b600073ffffffffffffffffffffffffffffffffffffffff82169050919050565b6200020181620001c2565b81146200020d57600080fd5b50565b6118c880620002206000396000f3fe608060405234801561001057600080fd5b506004361061012b5760003560e01c80637f286286116100ad578063b817f2f811610071578063b817f2f814610366578063dec3d07114610396578063e7654694146103b2578063f2439f0c146103ce578063f2fde38b146103fe5761012b565b80637f2862861461029c5780637f8b71e8146102cc5780638da5cb5b146102fc5780638ea7f38c1461031a578063b2d98664146103365761012b565b8063586ffae8116100f4578063586ffae81461020c5780635beb2ff4146102285780636a68024c146102585780636f9fb98a14610274578063715018a6146102925761012b565b806226eb2d1461013057806317e3f361146101605780632c72814714610190578063441a3e70146101c057806347bb89f0146101dc575b600080fd5b61014a600480360381019061014591906112df565b61041a565b60405161015791906114fb565b60405180910390f35b61017a60048036038101906101759190611331565b61043a565b60405161018791906114b7565b60405180910390f35b6101aa60048036038101906101a59190611331565b61046d565b6040516101b79190611576565b60405180910390f35b6101da60048036038101906101d59190611396565b610485565b005b6101f660048036038101906101f19190611331565b610779565b6040516102039190611576565b60405180910390f35b6102266004803603810190610221919061135a565b610791565b005b610242600480360381019061023d9190611331565b610863565b60405161024f9190611576565b60405180910390f35b610272600480360381019061026d9190611396565b61087b565b005b61027c610913565b6040516102899190611576565b60405180910390f35b61029a610932565b005b6102b660048036038101906102b19190611331565b6109ba565b6040516102c39190611576565b60405180910390f35b6102e660048036038101906102e19190611331565b6109d7565b6040516102f391906114fb565b60405180910390f35b6103046109f6565b60405161031191906114b7565b60405180910390f35b610334600480360381019061032f9190611396565b610a1f565b005b610350600480360381019061034b9190611331565b610b71565b60405161035d9190611576565b60405180910390f35b610380600480360381019061037b9190611331565b610b89565b60405161038d9190611576565b60405180910390f35b6103b060048036038101906103ab91906113d2565b610ba6565b005b6103cc60048036038101906103c791906113d2565b610d16565b005b6103e860048036038101906103e39190611331565b611070565b6040516103f591906114fb565b60405180910390f35b610418600480360381019061041391906112df565b6110dc565b005b60036020528060005260406000206000915054906101000a900460ff1681565b60046020528060005260406000206000915054906101000a900473ffffffffffffffffffffffffffffffffffffffff1681565b60076020528060005260406000206000915090505481565b61048d6111d4565b73ffffffffffffffffffffffffffffffffffffffff166104ab6109f6565b73ffffffffffffffffffffffffffffffffffffffff1614610501576040517f08c379a00000000000000000000000000000000000000000000000000000000081526004016104f890611536565b60405180910390fd5b60006004600084815260200190815260200160002060009054906101000a900473ffffffffffffffffffffffffffffffffffffffff1690506000600560008581526020019081526020016000205490506000670de0b6b3a7640000846105679190611652565b9050600073ffffffffffffffffffffffffffffffffffffffff168373ffffffffffffffffffffffffffffffffffffffff1614156105a657505050610775565b60008214156105b757505050610775565b8082101561068d57600160009054906101000a900473ffffffffffffffffffffffffffffffffffffffff1673ffffffffffffffffffffffffffffffffffffffff1663a9059cbb84846040518363ffffffff1660e01b815260040161061c9291906114d2565b602060405180830381600087803b15801561063657600080fd5b505af115801561064a573d6000803e3d6000fd5b505050506040513d601f19601f8201168201806040525081019061066e9190611308565b5060006005600087815260200190815260200160002081905550610771565b8082111561077057600160009054906101000a900473ffffffffffffffffffffffffffffffffffffffff1673ffffffffffffffffffffffffffffffffffffffff1663a9059cbb84836040518363ffffffff1660e01b81526004016106f29291906114d2565b602060405180830381600087803b15801561070c57600080fd5b505af1158015610720573d6000803e3d6000fd5b505050506040513d601f19601f820116820180604052508101906107449190611308565b508060056000878152602001908152602001600020600082825461076891906116ac565b925050819055505b5b5050505b5050565b60056020528060005260406000206000915090505481565b6107996111d4565b73ffffffffffffffffffffffffffffffffffffffff166107b76109f6565b73ffffffffffffffffffffffffffffffffffffffff161461080d576040517f08c379a000000000000000000000000000000000000000000000000000000000815260040161080490611536565b60405180910390fd5b806004600084815260200190815260200160002060006101000a81548173ffffffffffffffffffffffffffffffffffffffff021916908373ffffffffffffffffffffffffffffffffffffffff1602179055505050565b60026020528060005260406000206000915090505481565b6108836111d4565b73ffffffffffffffffffffffffffffffffffffffff166108a16109f6565b73ffffffffffffffffffffffffffffffffffffffff16146108f7576040517f08c379a00000000000000000000000000000000000000000000000000000000081526004016108ee90611536565b60405180910390fd5b8160026000838152602001908152602001600020819055505050565b60003373ffffffffffffffffffffffffffffffffffffffff1631905090565b61093a6111d4565b73ffffffffffffffffffffffffffffffffffffffff166109586109f6565b73ffffffffffffffffffffffffffffffffffffffff16146109ae576040517f08c379a00000000000000000000000000000000000000000000000000000000081526004016109a590611536565b60405180910390fd5b6109b860006111dc565b565b600060056000838152602001908152602001600020549050919050565b6000806005600084815260200190815260200160002054119050919050565b60008060009054906101000a900473ffffffffffffffffffffffffffffffffffffffff16905090565b610a276111d4565b73ffffffffffffffffffffffffffffffffffffffff16610a456109f6565b73ffffffffffffffffffffffffffffffffffffffff1614610a9b576040517f08c379a0000000000000000000000000000000000000000000000000000000008152600401610a9290611536565b60405180910390fd5b6000670de0b6b3a764000082610ab19190611652565b9050600160009054906101000a900473ffffffffffffffffffffffffffffffffffffffff1673ffffffffffffffffffffffffffffffffffffffff166340c10f1930836040518363ffffffff1660e01b8152600401610b109291906114d2565b600060405180830381600087803b158015610b2a57600080fd5b505af1158015610b3e573d6000803e3d6000fd5b5050505080600560008581526020019081526020016000206000828254610b6591906115cb565b92505081905550505050565b60066020528060005260406000206000915090505481565b600060026000838152602001908152602001600020549050919050565b610bae6111d4565b73ffffffffffffffffffffffffffffffffffffffff16610bcc6109f6565b73ffffffffffffffffffffffffffffffffffffffff1614610c22576040517f08c379a0000000000000000000000000000000000000000000000000000000008152600401610c1990611536565b60405180910390fd5b8060056000858152602001908152602001600020541015610cbc576005600084815260200190815260200160002054600560008481526020019081526020016000206000828254610c7391906115cb565b925050819055506005600084815260200190815260200160002054600560008581526020019081526020016000206000828254610cb091906116ac565b92505081905550610d11565b80600560008581526020019081526020016000206000828254610cdf91906116ac565b9250508190555080600560008481526020019081526020016000206000828254610d0991906115cb565b925050819055505b505050565b610d1e6111d4565b73ffffffffffffffffffffffffffffffffffffffff16610d3c6109f6565b73ffffffffffffffffffffffffffffffffffffffff1614610d92576040517f08c379a0000000000000000000000000000000000000000000000000000000008152600401610d8990611536565b60405180910390fd5b60006005600085815260200190815260200160002054905060018111610ded576040517f08c379a0000000000000000000000000000000000000000000000000000000008152600401610de490611556565b60405180910390fd5b60006024600760008781526020019081526020016000205442610e1091906116ac565b610e1a9190611621565b90506000816006600088815260200190815260200160002054610e3d91906115cb565b90506064811115610e4d57606490505b60006103e890506000818386610e639190611652565b610e6d9190611621565b9050600160009054906101000a900473ffffffffffffffffffffffffffffffffffffffff1673ffffffffffffffffffffffffffffffffffffffff166340c10f1930836040518363ffffffff1660e01b8152600401610ecc9291906114d2565b600060405180830381600087803b158015610ee657600080fd5b505af1158015610efa573d6000803e3d6000fd5b505050506064604682610f0d9190611652565b610f179190611621565b600560008981526020019081526020016000206000828254610f3991906115cb565b925050819055506064601482610f4f9190611652565b610f599190611621565b600560008a81526020019081526020016000206000828254610f7b91906115cb565b925050819055506064600782610f919190611652565b610f9b9190611621565b600560008881526020019081526020016000206000828254610fbd91906115cb565b92505081905550600a831115610fec57600a83610fda9190611621565b83610fe591906116ac565b9250610ffc565b600183610ff991906116ac565b92505b82600660008a81526020019081526020016000208190555042600760008a815260200190815260200160002081905550877fbe911e1f9f66d03213bf7151c18b8b493762baf82771ea14a5e15a57ee84f6cc824260405161105e929190611591565b60405180910390a25050505050505050565b60008073ffffffffffffffffffffffffffffffffffffffff166004600084815260200190815260200160002060009054906101000a900473ffffffffffffffffffffffffffffffffffffffff1673ffffffffffffffffffffffffffffffffffffffff1614159050919050565b6110e46111d4565b73ffffffffffffffffffffffffffffffffffffffff166111026109f6565b73ffffffffffffffffffffffffffffffffffffffff1614611158576040517f08c379a000000000000000000000000000000000000000000000000000000000815260040161114f90611536565b60405180910390fd5b600073ffffffffffffffffffffffffffffffffffffffff168173ffffffffffffffffffffffffffffffffffffffff1614156111c8576040517f08c379a00000000000000000000000000000000000000000000000000000000081526004016111bf90611516565b60405180910390fd5b6111d1816111dc565b50565b600033905090565b60008060009054906101000a900473ffffffffffffffffffffffffffffffffffffffff169050816000806101000a81548173ffffffffffffffffffffffffffffffffffffffff021916908373ffffffffffffffffffffffffffffffffffffffff1602179055508173ffffffffffffffffffffffffffffffffffffffff168173ffffffffffffffffffffffffffffffffffffffff167f8be0079c531659141344cd1fd0a4f28419497f9722a3daafe3b4186f6b6457e060405160405180910390a35050565b6000813590506112af8161184d565b92915050565b6000815190506112c481611864565b92915050565b6000813590506112d98161187b565b92915050565b6000602082840312156112f157600080fd5b60006112ff848285016112a0565b91505092915050565b60006020828403121561131a57600080fd5b6000611328848285016112b5565b91505092915050565b60006020828403121561134357600080fd5b6000611351848285016112ca565b91505092915050565b6000806040838503121561136d57600080fd5b600061137b858286016112ca565b925050602061138c858286016112a0565b9150509250929050565b600080604083850312156113a957600080fd5b60006113b7858286016112ca565b92505060206113c8858286016112ca565b9150509250929050565b6000806000606084860312156113e757600080fd5b60006113f5868287016112ca565b9350506020611406868287016112ca565b9250506040611417868287016112ca565b9150509250925092565b61142a816116e0565b82525050565b611439816116f2565b82525050565b600061144c6026836115ba565b915061145782611786565b604082019050919050565b600061146f6020836115ba565b915061147a826117d5565b602082019050919050565b60006114926022836115ba565b915061149d826117fe565b604082019050919050565b6114b18161171e565b82525050565b60006020820190506114cc6000830184611421565b92915050565b60006040820190506114e76000830185611421565b6114f460208301846114a8565b9392505050565b60006020820190506115106000830184611430565b92915050565b6000602082019050818103600083015261152f8161143f565b9050919050565b6000602082019050818103600083015261154f81611462565b9050919050565b6000602082019050818103600083015261156f81611485565b9050919050565b600060208201905061158b60008301846114a8565b92915050565b60006040820190506115a660008301856114a8565b6115b360208301846114a8565b9392505050565b600082825260208201905092915050565b60006115d68261171e565b91506115e18361171e565b9250827fffffffffffffffffffffffffffffffffffffffffffffffffffffffffffffffff0382111561161657611615611728565b5b828201905092915050565b600061162c8261171e565b91506116378361171e565b92508261164757611646611757565b5b828204905092915050565b600061165d8261171e565b91506116688361171e565b9250817fffffffffffffffffffffffffffffffffffffffffffffffffffffffffffffffff04831182151516156116a1576116a0611728565b5b828202905092915050565b60006116b78261171e565b91506116c28361171e565b9250828210156116d5576116d4611728565b5b828203905092915050565b60006116eb826116fe565b9050919050565b60008115159050919050565b600073ffffffffffffffffffffffffffffffffffffffff82169050919050565b6000819050919050565b7f4e487b7100000000000000000000000000000000000000000000000000000000600052601160045260246000fd5b7f4e487b7100000000000000000000000000000000000000000000000000000000600052601260045260246000fd5b7f4f776e61626c653a206e6577206f776e657220697320746865207a65726f206160008201527f6464726573730000000000000000000000000000000000000000000000000000602082015250565b7f4f776e61626c653a2063616c6c6572206973206e6f7420746865206f776e6572600082015250565b7f5573657220686173206e6f2062616c616e636520746f20656e6761676520776960008201527f7468000000000000000000000000000000000000000000000000000000000000602082015250565b611856816116e0565b811461186157600080fd5b50565b61186d816116f2565b811461187857600080fd5b50565b6118848161171e565b811461188f57600080fd5b5056fea26469706673582212205bf63ef3eae1867654ad5b26b21d40a8bdfa2b04499a2d08d8922acf262be50664736f6c63430008040033",
  "linkReferences": {},
  "deployedLinkReferences": {}
}