{
  "_format": "hh-sol-artifact-1",
  "contractName": "Inflection",
  "sourceName": "contracts/Inflection.sol",
  "abi": [
    {
      "inputs": [
        {
          "internalType": "contract Point",
          "name": "_point",
          "type": "address"
        }
      ],
      "stateMutability": "nonpayable",
      "type": "constructor"
    },
    {
      "anonymous": false,
      "inputs": [
        {
          "indexed": true,
          "internalType": "uint256",
          "name": "id",
          "type": "uint256"
        },
        {
          "indexed": false,
          "internalType": "uint256",
          "name": "value",
          "type": "uint256"
        },
        {
          "indexed": false,
          "internalType": "uint256",
          "name": "time",
          "type": "uint256"
        }
      ],
      "name": "Engagement",
      "type": "event"
    },
    {
      "anonymous": false,
      "inputs": [
        {
          "indexed": true,
          "internalType": "address",
          "name": "user",
          "type": "address"
        },
        {
          "indexed": false,
          "internalType": "uint256",
          "name": "amount",
          "type": "uint256"
        }
      ],
      "name": "PowerUp",
      "type": "event"
    },
    {
      "inputs": [
        {
          "internalType": "uint256",
          "name": "userID",
          "type": "uint256"
        },
        {
          "internalType": "uint256",
          "name": "_amount",
          "type": "uint256"
        }
      ],
      "name": "addPOINT",
      "outputs": [],
      "stateMutability": "nonpayable",
      "type": "function"
    },
    {
      "inputs": [
        {
          "internalType": "uint256",
          "name": "userID",
          "type": "uint256"
        },
        {
          "internalType": "uint256",
          "name": "serverID",
          "type": "uint256"
        }
      ],
      "name": "assignServerOwner",
      "outputs": [],
      "stateMutability": "nonpayable",
      "type": "function"
    },
    {
      "inputs": [
        {
          "internalType": "uint256",
          "name": "discordID",
          "type": "uint256"
        },
        {
          "internalType": "address",
          "name": "_address",
          "type": "address"
        }
      ],
      "name": "authenticate",
      "outputs": [],
      "stateMutability": "nonpayable",
      "type": "function"
    },
    {
      "inputs": [
        {
          "internalType": "uint256",
          "name": "",
          "type": "uint256"
        }
      ],
      "name": "balance",
      "outputs": [
        {
          "internalType": "uint256",
          "name": "",
          "type": "uint256"
        }
      ],
      "stateMutability": "view",
      "type": "function"
    },
    {
      "inputs": [
        {
          "internalType": "uint256",
          "name": "userID",
          "type": "uint256"
        }
      ],
      "name": "checkBalance",
      "outputs": [
        {
          "internalType": "uint256",
          "name": "",
          "type": "uint256"
        }
      ],
      "stateMutability": "view",
      "type": "function"
    },
    {
      "inputs": [
        {
          "internalType": "uint256",
          "name": "serverID",
          "type": "uint256"
        }
      ],
      "name": "checkServerOwner",
      "outputs": [
        {
          "internalType": "uint256",
          "name": "",
          "type": "uint256"
        }
      ],
      "stateMutability": "view",
      "type": "function"
    },
    {
      "inputs": [
        {
          "internalType": "uint256",
          "name": "engagerID",
          "type": "uint256"
        },
        {
          "internalType": "uint256",
          "name": "posterID",
          "type": "uint256"
        },
        {
          "internalType": "uint256",
          "name": "serverID",
          "type": "uint256"
        }
      ],
      "name": "engage",
      "outputs": [],
      "stateMutability": "nonpayable",
      "type": "function"
    },
    {
      "inputs": [],
      "name": "getContractBalance",
      "outputs": [
        {
          "internalType": "uint256",
          "name": "",
          "type": "uint256"
        }
      ],
      "stateMutability": "view",
      "type": "function"
    },
    {
      "inputs": [
        {
          "internalType": "uint256",
          "name": "",
          "type": "uint256"
        }
      ],
      "name": "inflectionAccount",
      "outputs": [
        {
          "internalType": "address",
          "name": "",
          "type": "address"
        }
      ],
      "stateMutability": "view",
      "type": "function"
    },
    {
      "inputs": [
        {
          "internalType": "uint256",
          "name": "discordID",
          "type": "uint256"
        }
      ],
      "name": "isAuthenticated",
      "outputs": [
        {
          "internalType": "bool",
          "name": "",
          "type": "bool"
        }
      ],
      "stateMutability": "view",
      "type": "function"
    },
    {
      "inputs": [
        {
          "internalType": "address",
          "name": "",
          "type": "address"
        }
      ],
      "name": "isPoweredUp",
      "outputs": [
        {
          "internalType": "bool",
          "name": "",
          "type": "bool"
        }
      ],
      "stateMutability": "view",
      "type": "function"
    },
    {
      "inputs": [
        {
          "internalType": "uint256",
          "name": "",
          "type": "uint256"
        }
      ],
      "name": "previousEngagement",
      "outputs": [
        {
          "internalType": "uint256",
          "name": "",
          "type": "uint256"
        }
      ],
      "stateMutability": "view",
      "type": "function"
    },
    {
      "inputs": [
        {
          "internalType": "uint256",
          "name": "",
          "type": "uint256"
        }
      ],
      "name": "previousMana",
      "outputs": [
        {
          "internalType": "uint256",
          "name": "",
          "type": "uint256"
        }
      ],
      "stateMutability": "view",
      "type": "function"
    },
    {
      "inputs": [
        {
          "internalType": "uint256",
          "name": "senderID",
          "type": "uint256"
        },
        {
          "internalType": "uint256",
          "name": "receiverID",
          "type": "uint256"
        },
        {
          "internalType": "uint256",
          "name": "amount",
          "type": "uint256"
        }
      ],
      "name": "sendPOINT",
      "outputs": [],
      "stateMutability": "nonpayable",
      "type": "function"
    },
    {
      "inputs": [
        {
          "internalType": "uint256",
          "name": "",
          "type": "uint256"
        }
      ],
      "name": "serverOwner",
      "outputs": [
        {
          "internalType": "uint256",
          "name": "",
          "type": "uint256"
        }
      ],
      "stateMutability": "view",
      "type": "function"
    },
    {
      "inputs": [
        {
          "internalType": "uint256",
          "name": "discordID",
          "type": "uint256"
        },
        {
          "internalType": "uint256",
          "name": "_amount",
          "type": "uint256"
        }
      ],
      "name": "withdraw",
      "outputs": [
        {
          "internalType": "bool",
          "name": "",
          "type": "bool"
        }
      ],
      "stateMutability": "nonpayable",
      "type": "function"
    }
  ],
  "bytecode": "0x60806040523480156200001157600080fd5b506040516200121038038062001210833981810160405281019062000037919062000095565b806000806101000a81548173ffffffffffffffffffffffffffffffffffffffff021916908373ffffffffffffffffffffffffffffffffffffffff1602179055505062000123565b6000815190506200008f8162000109565b92915050565b600060208284031215620000a857600080fd5b6000620000b8848285016200007e565b91505092915050565b6000620000ce82620000e9565b9050919050565b6000620000e282620000c1565b9050919050565b600073ffffffffffffffffffffffffffffffffffffffff82169050919050565b6200011481620000d5565b81146200012057600080fd5b50565b6110dd80620001336000396000f3fe608060405234801561001057600080fd5b50600436106100ff5760003560e01c80636f9fb98a11610097578063b817f2f811610066578063b817f2f8146102f6578063dec3d07114610326578063e765469414610342578063f2439f0c1461035e576100ff565b80636f9fb98a1461025c5780637f2862861461027a5780638ea7f38c146102aa578063b2d98664146102c6576100ff565b806347bb89f0116100d357806347bb89f0146101c4578063586ffae8146101f45780635beb2ff4146102105780636a68024c14610240576100ff565b806226eb2d1461010457806317e3f361146101345780632c72814714610164578063441a3e7014610194575b600080fd5b61011e60048036038101906101199190610c95565b61038e565b60405161012b9190610e48565b60405180910390f35b61014e60048036038101906101499190610ce7565b6103ae565b60405161015b9190610e04565b60405180910390f35b61017e60048036038101906101799190610ce7565b6103e1565b60405161018b9190610e63565b60405180910390f35b6101ae60048036038101906101a99190610d4c565b6103f9565b6040516101bb9190610e48565b60405180910390f35b6101de60048036038101906101d99190610ce7565b61067c565b6040516101eb9190610e63565b60405180910390f35b61020e60048036038101906102099190610d10565b610694565b005b61022a60048036038101906102259190610ce7565b6106ea565b6040516102379190610e63565b60405180910390f35b61025a60048036038101906102559190610d4c565b610702565b005b61026461071e565b6040516102719190610e63565b60405180910390f35b610294600480360381019061028f9190610ce7565b61073d565b6040516102a19190610e63565b60405180910390f35b6102c460048036038101906102bf9190610d4c565b61075a565b005b6102e060048036038101906102db9190610ce7565b61082e565b6040516102ed9190610e63565b60405180910390f35b610310600480360381019061030b9190610ce7565b610846565b60405161031d9190610e63565b60405180910390f35b610340600480360381019061033b9190610d88565b610863565b005b61035c60048036038101906103579190610d88565b610957565b005b61037860048036038101906103739190610ce7565b610bea565b6040516103859190610e48565b60405180910390f35b60026020528060005260406000206000915054906101000a900460ff1681565b60036020528060005260406000206000915054906101000a900473ffffffffffffffffffffffffffffffffffffffff1681565b60066020528060005260406000206000915090505481565b6000806003600085815260200190815260200160002060009054906101000a900473ffffffffffffffffffffffffffffffffffffffff1690506000600460008681526020019081526020016000205490506000670de0b6b3a7640000856104609190610f2e565b9050600073ffffffffffffffffffffffffffffffffffffffff168373ffffffffffffffffffffffffffffffffffffffff1614156104a35760009350505050610676565b60008214156104b85760009350505050610676565b8082101561058c5760008054906101000a900473ffffffffffffffffffffffffffffffffffffffff1673ffffffffffffffffffffffffffffffffffffffff1663a9059cbb84846040518363ffffffff1660e01b815260040161051b929190610e1f565b602060405180830381600087803b15801561053557600080fd5b505af1158015610549573d6000803e3d6000fd5b505050506040513d601f19601f8201168201806040525081019061056d9190610cbe565b506000600460008881526020019081526020016000208190555061066e565b8082111561066d5760008054906101000a900473ffffffffffffffffffffffffffffffffffffffff1673ffffffffffffffffffffffffffffffffffffffff1663a9059cbb84836040518363ffffffff1660e01b81526004016105ef929190610e1f565b602060405180830381600087803b15801561060957600080fd5b505af115801561061d573d6000803e3d6000fd5b505050506040513d601f19601f820116820180604052508101906106419190610cbe565b50806004600088815260200190815260200160002060008282546106659190610f88565b925050819055505b5b600193505050505b92915050565b60046020528060005260406000206000915090505481565b806003600084815260200190815260200160002060006101000a81548173ffffffffffffffffffffffffffffffffffffffff021916908373ffffffffffffffffffffffffffffffffffffffff1602179055505050565b60016020528060005260406000206000915090505481565b8160016000838152602001908152602001600020819055505050565b60003373ffffffffffffffffffffffffffffffffffffffff1631905090565b600060046000838152602001908152602001600020549050919050565b6000670de0b6b3a7640000826107709190610f2e565b905060008054906101000a900473ffffffffffffffffffffffffffffffffffffffff1673ffffffffffffffffffffffffffffffffffffffff166340c10f1930836040518363ffffffff1660e01b81526004016107cd929190610e1f565b600060405180830381600087803b1580156107e757600080fd5b505af11580156107fb573d6000803e3d6000fd5b50505050806004600085815260200190815260200160002060008282546108229190610ea7565b92505081905550505050565b60056020528060005260406000206000915090505481565b600060016000838152602001908152602001600020549050919050565b80600460008581526020019081526020016000205410156108fd5760046000848152602001908152602001600020546004600084815260200190815260200160002060008282546108b49190610ea7565b9250508190555060046000848152602001908152602001600020546004600085815260200190815260200160002060008282546108f19190610f88565b92505081905550610952565b806004600085815260200190815260200160002060008282546109209190610f88565b925050819055508060046000848152602001908152602001600020600082825461094a9190610ea7565b925050819055505b505050565b6000602460066000868152602001908152602001600020544261097a9190610f88565b6109849190610efd565b905060008160056000878152602001908152602001600020546109a79190610ea7565b905060648111156109b757606490505b60006103e8905060008183600460008a8152602001908152602001600020546109e09190610f2e565b6109ea9190610efd565b905060008054906101000a900473ffffffffffffffffffffffffffffffffffffffff1673ffffffffffffffffffffffffffffffffffffffff166340c10f1930836040518363ffffffff1660e01b8152600401610a47929190610e1f565b600060405180830381600087803b158015610a6157600080fd5b505af1158015610a75573d6000803e3d6000fd5b505050506064604682610a889190610f2e565b610a929190610efd565b600460008881526020019081526020016000206000828254610ab49190610ea7565b925050819055506064601482610aca9190610f2e565b610ad49190610efd565b600460008981526020019081526020016000206000828254610af69190610ea7565b925050819055506064600a82610b0c9190610f2e565b610b169190610efd565b600460008781526020019081526020016000206000828254610b389190610ea7565b92505081905550600a831115610b6757600a83610b559190610efd565b83610b609190610f88565b9250610b77565b600183610b749190610f88565b92505b826005600089815260200190815260200160002081905550426006600089815260200190815260200160002081905550867fbe911e1f9f66d03213bf7151c18b8b493762baf82771ea14a5e15a57ee84f6cc8242604051610bd9929190610e7e565b60405180910390a250505050505050565b60008073ffffffffffffffffffffffffffffffffffffffff166003600084815260200190815260200160002060009054906101000a900473ffffffffffffffffffffffffffffffffffffffff1673ffffffffffffffffffffffffffffffffffffffff1614159050919050565b600081359050610c6581611062565b92915050565b600081519050610c7a81611079565b92915050565b600081359050610c8f81611090565b92915050565b600060208284031215610ca757600080fd5b6000610cb584828501610c56565b91505092915050565b600060208284031215610cd057600080fd5b6000610cde84828501610c6b565b91505092915050565b600060208284031215610cf957600080fd5b6000610d0784828501610c80565b91505092915050565b60008060408385031215610d2357600080fd5b6000610d3185828601610c80565b9250506020610d4285828601610c56565b9150509250929050565b60008060408385031215610d5f57600080fd5b6000610d6d85828601610c80565b9250506020610d7e85828601610c80565b9150509250929050565b600080600060608486031215610d9d57600080fd5b6000610dab86828701610c80565b9350506020610dbc86828701610c80565b9250506040610dcd86828701610c80565b9150509250925092565b610de081610fbc565b82525050565b610def81610fce565b82525050565b610dfe81610ffa565b82525050565b6000602082019050610e196000830184610dd7565b92915050565b6000604082019050610e346000830185610dd7565b610e416020830184610df5565b9392505050565b6000602082019050610e5d6000830184610de6565b92915050565b6000602082019050610e786000830184610df5565b92915050565b6000604082019050610e936000830185610df5565b610ea06020830184610df5565b9392505050565b6000610eb282610ffa565b9150610ebd83610ffa565b9250827fffffffffffffffffffffffffffffffffffffffffffffffffffffffffffffffff03821115610ef257610ef1611004565b5b828201905092915050565b6000610f0882610ffa565b9150610f1383610ffa565b925082610f2357610f22611033565b5b828204905092915050565b6000610f3982610ffa565b9150610f4483610ffa565b9250817fffffffffffffffffffffffffffffffffffffffffffffffffffffffffffffffff0483118215151615610f7d57610f7c611004565b5b828202905092915050565b6000610f9382610ffa565b9150610f9e83610ffa565b925082821015610fb157610fb0611004565b5b828203905092915050565b6000610fc782610fda565b9050919050565b60008115159050919050565b600073ffffffffffffffffffffffffffffffffffffffff82169050919050565b6000819050919050565b7f4e487b7100000000000000000000000000000000000000000000000000000000600052601160045260246000fd5b7f4e487b7100000000000000000000000000000000000000000000000000000000600052601260045260246000fd5b61106b81610fbc565b811461107657600080fd5b50565b61108281610fce565b811461108d57600080fd5b50565b61109981610ffa565b81146110a457600080fd5b5056fea264697066735822122058c1d70ef1f9fe29f275fcc4687a7e62134ff2fa503ef97a833dc838bb74b92864736f6c63430008040033",
  "linkReferences": {},
  "deployedLinkReferences": {}
}